{
  "address": "0x9E1019f17d96175273Cc2867A17FD334459Fa268",
  "abi": [
    {
      "inputs": [
        {
          "internalType": "address",
          "name": "ownerAddr",
          "type": "address"
        },
        {
          "internalType": "address",
          "name": "beneficiaryAddr",
          "type": "address"
        }
      ],
      "stateMutability": "nonpayable",
      "type": "constructor"
    },
    {
      "inputs": [],
      "name": "NoAddressZero",
      "type": "error"
    },
    {
      "inputs": [],
      "name": "OnlyBeneficiary",
      "type": "error"
    },
    {
      "anonymous": false,
      "inputs": [
        {
          "indexed": true,
          "internalType": "address",
          "name": "oldBeneficiary",
          "type": "address"
        },
        {
          "indexed": true,
          "internalType": "address",
          "name": "newBeneficiary",
          "type": "address"
        }
      ],
      "name": "BeneficiaryChanged",
      "type": "event"
    },
    {
      "anonymous": false,
      "inputs": [
        {
          "indexed": false,
          "internalType": "address",
          "name": "sender",
          "type": "address"
        },
        {
          "indexed": false,
          "internalType": "uint256",
          "name": "amount",
          "type": "uint256"
        }
      ],
      "name": "Collected",
      "type": "event"
    },
    {
      "anonymous": false,
      "inputs": [
        {
          "indexed": true,
          "internalType": "address",
          "name": "previousOwner",
          "type": "address"
        },
        {
          "indexed": true,
          "internalType": "address",
          "name": "newOwner",
          "type": "address"
        }
      ],
      "name": "OwnershipTransferred",
      "type": "event"
    },
    {
      "anonymous": false,
      "inputs": [
        {
          "indexed": false,
          "internalType": "address",
          "name": "beneficiary",
          "type": "address"
        },
        {
          "indexed": false,
          "internalType": "uint256",
          "name": "amount",
          "type": "uint256"
        }
      ],
      "name": "Withdrawn",
      "type": "event"
    },
    {
      "anonymous": false,
      "inputs": [
        {
          "indexed": true,
          "internalType": "address",
          "name": "token",
          "type": "address"
        },
        {
          "indexed": false,
          "internalType": "address",
          "name": "beneficiary",
          "type": "address"
        },
        {
          "indexed": false,
          "internalType": "uint256",
          "name": "amount",
          "type": "uint256"
        }
      ],
      "name": "WithdrawnTokens",
      "type": "event"
    },
    {
      "inputs": [],
      "name": "beneficiary",
      "outputs": [
        {
          "internalType": "address",
          "name": "",
          "type": "address"
        }
      ],
      "stateMutability": "view",
      "type": "function"
    },
    {
      "inputs": [
        {
          "internalType": "address",
          "name": "beneficiaryAddr",
          "type": "address"
        }
      ],
      "name": "changeBeneficiary",
      "outputs": [],
      "stateMutability": "nonpayable",
      "type": "function"
    },
    {
      "inputs": [],
      "name": "owner",
      "outputs": [
        {
          "internalType": "address",
          "name": "",
          "type": "address"
        }
      ],
      "stateMutability": "view",
      "type": "function"
    },
    {
      "inputs": [],
      "name": "renounceOwnership",
      "outputs": [],
      "stateMutability": "nonpayable",
      "type": "function"
    },
    {
      "inputs": [
        {
          "internalType": "address",
          "name": "newOwner",
          "type": "address"
        }
      ],
      "name": "transferOwnership",
      "outputs": [],
      "stateMutability": "nonpayable",
      "type": "function"
    },
    {
      "inputs": [],
      "name": "withdraw",
      "outputs": [],
      "stateMutability": "nonpayable",
      "type": "function"
    },
    {
      "inputs": [
        {
          "internalType": "address",
          "name": "token",
          "type": "address"
        }
      ],
      "name": "withdrawTokens",
      "outputs": [],
      "stateMutability": "nonpayable",
      "type": "function"
    },
    {
      "stateMutability": "payable",
      "type": "receive"
    }
  ],
  "transactionHash": "0xea77b53327fcea8c198076295abc581627ec848739d374b98470b9b8f29b2acb",
  "args": [
    "0x839395e20bbB182fa440d08F850E6c7A8f6F0780",
    "0x3EFa0Ab6F541B075cFCc2388b2E060196aC26181"
  ],
  "numDeployments": 1,
  "solcInputHash": "67c7dce0d554798cd0baee140f86e498",
  "bytecode": "0x608060405234801561001057600080fd5b50604051610e95380380610e9583398101604081905261002f916100cf565b61003833610063565b600180546001600160a01b0319166001600160a01b03831617905561005c82610063565b5050610102565b600080546001600160a01b038381166001600160a01b0319831681178455604051919092169283917f8be0079c531659141344cd1fd0a4f28419497f9722a3daafe3b4186f6b6457e09190a35050565b80516001600160a01b03811681146100ca57600080fd5b919050565b600080604083850312156100e257600080fd5b6100eb836100b3565b91506100f9602084016100b3565b90509250929050565b610d84806101116000396000f3fe6080604052600436106100745760003560e01c8063715018a61161004e578063715018a61461013f5780638da5cb5b14610154578063dc0706571461017f578063f2fde38b1461019f57600080fd5b806338af3eed146100b85780633ccfd60b1461010857806349df728c1461011f57600080fd5b366100b357604080513381523460208201527f8c22f554c81b54107cd95e734e4ef45767214974a540f34ea4a4f8c3fc7b13c3910160405180910390a1005b600080fd5b3480156100c457600080fd5b5060015473ffffffffffffffffffffffffffffffffffffffff165b60405173ffffffffffffffffffffffffffffffffffffffff909116815260200160405180910390f35b34801561011457600080fd5b5061011d6101bf565b005b34801561012b57600080fd5b5061011d61013a366004610c40565b61026d565b34801561014b57600080fd5b5061011d6103cc565b34801561016057600080fd5b5060005473ffffffffffffffffffffffffffffffffffffffff166100df565b34801561018b57600080fd5b5061011d61019a366004610c40565b61045c565b3480156101ab57600080fd5b5061011d6101ba366004610c40565b6105a1565b60015473ffffffffffffffffffffffffffffffffffffffff163314610210576040517f5e5a974900000000000000000000000000000000000000000000000000000000815260040160405180910390fd5b604080513381524760208201527f7084f5476618d8e60b11ef0d7d3f06914655adb8793e28ff7f018d4c76d505d5910160405180910390a160015461026b9073ffffffffffffffffffffffffffffffffffffffff16476106d1565b565b60015473ffffffffffffffffffffffffffffffffffffffff1633146102be576040517f5e5a974900000000000000000000000000000000000000000000000000000000815260040160405180910390fd5b6040517f70a0823100000000000000000000000000000000000000000000000000000000815230600482015260009073ffffffffffffffffffffffffffffffffffffffff8316906370a0823190602401602060405180830381865afa15801561032b573d6000803e3d6000fd5b505050506040513d601f19601f8201168201806040525081019061034f9190610c76565b604080513381526020810183905291925073ffffffffffffffffffffffffffffffffffffffff8416917ff42f2a8394760dc35120388b26b990e21f70e894d51bdfbc1963dc1f26b64b27910160405180910390a26001546103c890839073ffffffffffffffffffffffffffffffffffffffff1683610830565b5050565b60005473ffffffffffffffffffffffffffffffffffffffff163314610452576040517f08c379a000000000000000000000000000000000000000000000000000000000815260206004820181905260248201527f4f776e61626c653a2063616c6c6572206973206e6f7420746865206f776e657260448201526064015b60405180910390fd5b61026b60006108bd565b60005473ffffffffffffffffffffffffffffffffffffffff1633146104dd576040517f08c379a000000000000000000000000000000000000000000000000000000000815260206004820181905260248201527f4f776e61626c653a2063616c6c6572206973206e6f7420746865206f776e65726044820152606401610449565b73ffffffffffffffffffffffffffffffffffffffff811661052a576040517f1e194fd300000000000000000000000000000000000000000000000000000000815260040160405180910390fd5b6001805473ffffffffffffffffffffffffffffffffffffffff8381167fffffffffffffffffffffffff0000000000000000000000000000000000000000831681179093556040519116919082907f768099735d1c322a05a5b9d7b76d99682a1833d3f7055e5ede25e0f2eeaa8c6d90600090a35050565b60005473ffffffffffffffffffffffffffffffffffffffff163314610622576040517f08c379a000000000000000000000000000000000000000000000000000000000815260206004820181905260248201527f4f776e61626c653a2063616c6c6572206973206e6f7420746865206f776e65726044820152606401610449565b73ffffffffffffffffffffffffffffffffffffffff81166106c5576040517f08c379a000000000000000000000000000000000000000000000000000000000815260206004820152602660248201527f4f776e61626c653a206e6577206f776e657220697320746865207a65726f206160448201527f64647265737300000000000000000000000000000000000000000000000000006064820152608401610449565b6106ce816108bd565b50565b8047101561073b576040517f08c379a000000000000000000000000000000000000000000000000000000000815260206004820152601d60248201527f416464726573733a20696e73756666696369656e742062616c616e63650000006044820152606401610449565b60008273ffffffffffffffffffffffffffffffffffffffff168260405160006040518083038185875af1925050503d8060008114610795576040519150601f19603f3d011682016040523d82523d6000602084013e61079a565b606091505b505090508061082b576040517f08c379a000000000000000000000000000000000000000000000000000000000815260206004820152603a60248201527f416464726573733a20756e61626c6520746f2073656e642076616c75652c207260448201527f6563697069656e74206d617920686176652072657665727465640000000000006064820152608401610449565b505050565b6040805173ffffffffffffffffffffffffffffffffffffffff8416602482015260448082018490528251808303909101815260649091019091526020810180517bffffffffffffffffffffffffffffffffffffffffffffffffffffffff167fa9059cbb0000000000000000000000000000000000000000000000000000000017905261082b908490610932565b6000805473ffffffffffffffffffffffffffffffffffffffff8381167fffffffffffffffffffffffff0000000000000000000000000000000000000000831681178455604051919092169283917f8be0079c531659141344cd1fd0a4f28419497f9722a3daafe3b4186f6b6457e09190a35050565b6000610994826040518060400160405280602081526020017f5361666545524332303a206c6f772d6c6576656c2063616c6c206661696c65648152508573ffffffffffffffffffffffffffffffffffffffff16610a3e9092919063ffffffff16565b80519091501561082b57808060200190518101906109b29190610c8f565b61082b576040517f08c379a000000000000000000000000000000000000000000000000000000000815260206004820152602a60248201527f5361666545524332303a204552433230206f7065726174696f6e20646964206e60448201527f6f742073756363656564000000000000000000000000000000000000000000006064820152608401610449565b6060610a4d8484600085610a57565b90505b9392505050565b606082471015610ae9576040517f08c379a000000000000000000000000000000000000000000000000000000000815260206004820152602660248201527f416464726573733a20696e73756666696369656e742062616c616e636520666f60448201527f722063616c6c00000000000000000000000000000000000000000000000000006064820152608401610449565b73ffffffffffffffffffffffffffffffffffffffff85163b610b67576040517f08c379a000000000000000000000000000000000000000000000000000000000815260206004820152601d60248201527f416464726573733a2063616c6c20746f206e6f6e2d636f6e74726163740000006044820152606401610449565b6000808673ffffffffffffffffffffffffffffffffffffffff168587604051610b909190610ce1565b60006040518083038185875af1925050503d8060008114610bcd576040519150601f19603f3d011682016040523d82523d6000602084013e610bd2565b606091505b5091509150610be2828286610bed565b979650505050505050565b60608315610bfc575081610a50565b825115610c0c5782518084602001fd5b816040517f08c379a00000000000000000000000000000000000000000000000000000000081526004016104499190610cfd565b600060208284031215610c5257600080fd5b813573ffffffffffffffffffffffffffffffffffffffff81168114610a5057600080fd5b600060208284031215610c8857600080fd5b5051919050565b600060208284031215610ca157600080fd5b81518015158114610a5057600080fd5b60005b83811015610ccc578181015183820152602001610cb4565b83811115610cdb576000848401525b50505050565b60008251610cf3818460208701610cb1565b9190910192915050565b6020815260008251806020840152610d1c816040850160208701610cb1565b601f017fffffffffffffffffffffffffffffffffffffffffffffffffffffffffffffffe016919091016040019291505056fea26469706673582212201c5ebb4742b6edc12191816f5362c56b4c939199d7eb01de7b32a1209a3e008464736f6c634300080e0033",
  "devdoc": {
    "author": "Giveth developers",
    "kind": "dev",
    "methods": {
      "beneficiary()": {
        "returns": {
          "_0": "Address of the beneficiary."
        }
      },
      "changeBeneficiary(address)": {
        "details": "Can only be called by the owner. Beneficiary cannot be address zero.",
        "params": {
          "beneficiaryAddr": "The new beneficiary."
        }
      },
      "constructor": {
        "details": "Construct the collector, set the owner and beneficiary",
        "params": {
          "beneficiaryAddr": "Address that will be the beneficiary",
          "ownerAddr": "Address that will own the contract"
        }
      },
      "owner()": {
        "details": "Returns the address of the current owner."
      },
      "renounceOwnership()": {
        "details": "Leaves the contract without owner. It will not be possible to call `onlyOwner` functions anymore. Can only be called by the current owner. NOTE: Renouncing ownership will leave the contract without an owner, thereby removing any functionality that is only available to the owner."
      },
      "transferOwnership(address)": {
        "details": "Transfers ownership of the contract to a new account (`newOwner`). Can only be called by the current owner."
      },
      "withdraw()": {
        "details": "Can only be called by the beneficiary."
      },
      "withdrawTokens(address)": {
        "details": "Can only be called by the beneficiary. Token must be a valid ERC20 contract.",
        "params": {
          "token": "Token contract address."
        }
      }
    },
    "title": "Collector",
    "version": 1
  },
  "userdoc": {
    "errors": {
      "NoAddressZero()": [
        {
          "notice": "Must not be zero address."
        }
      ],
      "OnlyBeneficiary()": [
        {
          "notice": "Must be called by the beneficiary address"
        }
      ]
    },
    "events": {
      "BeneficiaryChanged(address,address)": {
        "notice": "Emitted when the beneficiary is changed by the owner."
      },
      "Collected(address,uint256)": {
        "notice": "Emitted when the collector contract receives ETH."
      },
      "Withdrawn(address,uint256)": {
        "notice": "Emitted when the collected ETH was withdrawn."
      },
      "WithdrawnTokens(address,address,uint256)": {
        "notice": "Emitted when the collected tokens were withdrawn."
      }
    },
    "kind": "user",
    "methods": {
      "beneficiary()": {
        "notice": "Returns the beneficiary address."
      },
      "changeBeneficiary(address)": {
        "notice": "Change the beneficiary address."
      },
      "withdraw()": {
        "notice": "Withdraw all the collected ETH."
      },
      "withdrawTokens(address)": {
        "notice": "Withdraw all the collected tokens from the given token contract."
      }
    },
    "notice": "A simple collection contract that allows the beneficiary to withdraw collected ETH and ERC-20 tokens.",
    "version": 1
  },
  "storageLayout": {
    "storage": [
      {
        "astId": 7,
        "contract": "contracts/Collector.sol:Collector",
        "label": "_owner",
        "offset": 0,
        "slot": "0",
        "type": "t_address"
      },
      {
        "astId": 894,
        "contract": "contracts/Collector.sol:Collector",
        "label": "_beneficiary",
        "offset": 0,
        "slot": "1",
        "type": "t_address"
      }
    ],
    "types": {
      "t_address": {
        "encoding": "inplace",
        "label": "address",
        "numberOfBytes": "20"
      }
    }
  }
}